:020000000F2AC5
:06000600000000000800EC
:10000C000F3083120313FC004730FD00FD0B0C284E
:0A001C00FC0B0C2800000000080097
:0E002600213083120313FD00FD0B1728080084
:1000340083160313DA1B21288312881223288312C0
:10004400881683165A1B2928831208122B28831218
:1000540008168316DA1A312883128811332883127A
:10006400881583165A1A3928831208113B288312DB
:100074000815831651184128831208144328831243
:1000840008108814032088108316DA194C28831268
:1000940088124E288312881683165A1954288312FC
:1000A40008125628831208168316DA185C2883125D
:1000B40088115E288312881583165A1864288312BF
:1000C4000811662883120815831651186C288312A8
:1000D40008146E28831208108814032088108316CD
:0C00E400511C7628062077281320080005
:0E00F000F201F101F001F801F3010030080007
:1000FE007B15FB1F89280130F300F201F101F0019D
:08010E00FA0DF20CFF300800AD
:08011600FA1FF213003008008B
:10011E008316031351105908DA001A20831651144E
:02012E000800C7
:0E013000831203136F088A006E088200080015
:10013E000E3083120313FD00FD0BA32800000800F0
:10014E00A0017208031DBC287108F2007008F100AE
:10015E00F001A0157208031DBC287108F200F10110
:10016E00A011201672080319CA282008F302031DD5
:10017E00031CCE280310F21BD228F00DF10DF20D48
:10018E00F30BC228CE280130FC007820D52802308F
:0E019E00FC007F20D5280430FC008B200800D8
:1001AC0083120313FA017308031D7A147708031DD5
:1001BC00FA147A0803192229033A0319ED287A183C
:1001CC00EA28F61F20291E29F21F1E292029720851
:1001DC008039FA00F21376088039F6137A0603197F
:1001EC00FB287A0803191E292029770873020319A2
:1001FC000229031C16291A297608720203190929E7
:10020C00031C16291A297508710203191029031CDD
:10021C0016291A29740870020319222903181A299D
:10022C00FA08031920291E29FA0803191E29202966
:10023C000314080003100800031403150800080039
:10024C003829803083160313D5004B29C030D500D4
:10025C004B299430D5004B29D430D5004B29803014
:10026C00D5004B29831603135508013A0319272986
:10027C005508023A03192C295508033A03192F295A
:10028C005508043A0319322935295603F00055084C
:10029C00F0077008D5007008DA001A208316511088
:1002AC00D801580857078400000803196529580815
:1002BC00570784000008D9008F20D80A57295114F9
:0202CC00080028
:1002CE00C330831203139F05C0309F008316550859
:1002DE00F000F00D7010F00D7010700883129F0476
:1002EE0083169F1783121F149F209F149F1C812912
:1002FE0000007D291F101E08F100F00183161E0854
:08030E00F0040030F1040800C6
:10031600831203137008F8007108F000F101F2016E
:10032600F301FB01FC019630F300FA017008F100BD
:0C0336007808F000F801F201A720080090
:1003420083160313881008100811881108128812E6
:1003520083128810081088120812881108110620CA
:100362000620062088150815881403208810062008
:100372008814032088100620881403208810062081
:10038200081188140320881006208814032088107E
:1003920088118816881403208810062088120815F0
:1003A200881403208810081188140320881006205E
:1003B200881403208810081588140320881006204A
:1003C2000811881403208810881608168815081545
:0E03D20088140320881006208316511408009A
:1003E000FF3083160313D200FF30D300FF30D40058
:1003F000FF30C33083129F05C0309F0083169F17C4
:0604000083121F14080026
:1004060098208A110A128000840AEE0A0319EF0A5C
:08041600F003031D032A080096
:10041E00842383160313870183128701F021A12100
:10042E000130DA001A200C308316DA001A2001305F
:10043E008316D5000130D6002C30D700262102308D
:10044E00D5000130D6002130D70026211530FB0013
:10045E004B30FC00BE30FD00FD0B332AFC0B332A63
:10046E00FB0B332A00000130DA001A20013083160C
:10047E00D5000130D600A030D70026210230D5009D
:10048E000130D6006330D70026211530FB004B30EB
:10049E00FC00BE30FD00FD0B522AFC0B522AFB0B5A
:1004AE00522A00000130DA001A2001308316D500DE
:1004BE000130D600B030D70026210230D5000130F1
:1004CE00D600C530D70026211530FB004B30FC007E
:1004DE00BE30FD00FD0B712AFC0B712AFB0B712A3D
:1004EE0000000130DA001A2001308316D500672192
:1004FE008B2170088316C1007108C2007208C300F8
:10050E007308C4007008F4007108F5007208F60054
:10051E007308F7000030F0000030F1001630F200E2
:10052E008830F300D620013003180030F000700838
:10053E000319C42AFD3087000630FB001330FC007F
:10054E00AD30FD00FD0BA92AFC0BA92AFB0BA92A35
:10055E000000000001308316DA001A2001308316E5
:10056E00D5000530D6005A30D70026210230D500EE
:10057E000530D6004730D700262183164108F400F7
:10058E004208F5004308F6004408F7000030F0007A
:10059E000030F1001630F2008830F300D620013022
:1005AE00031C0030F00070080319FF2A8701063083
:1005BE00FB001330FC00AD30FD00FD0BE42AFC0BFC
:1005CE00E42AFB0BE42A0000000001308316DA0057
:1005DE001A2001308316D5000530D6003C30D700E6
:1005EE0026210230D5000530D6005030D700262106
:0405FE007B2A002B29
:10070800213084004D3083120313F0000630EE00D0
:100718000330EF000322A03084003130831203132A
:0E072800F0005330EE000330EF000322080013
:10060C0020342034203420347334793473347434EB
:06061C0065346D3400346A
:100622002034203420342034493472347234693412
:1006320067346134743469346F346E342034003476
:10064200483475346D3469346434203453346F342F
:0606520069346C34003431
:100658004D346F3474346F34723420344F346E3404
:0206680000345C
:10066A004D346F3474346F34723420344F3446341A
:04067A0046340034CE
:10067E00443472347934203453346F3469346C34E6
:02068E00003436
:100690002034203420342034733479347334743467
:0606A00065346D340034E6
:1006A60020342034203420344134753474346F348B
:1006B6006D346134743469346F346E3420340034EC
:1006C6002034203453344F3449344C3420344D34A0
:1006D6004F34493453345434553452344534203429
:0206E6000034DE
:0806E80000340034003400343A
:1006F00020346134753474346F346D34613474343F
:0807000069346F346E340034DB
:04400E00F72F000781
:00000001FF
